:020000040800F2
:100000000008002089010008E5010008E50100085A
:10001000E5010008E5010008E50100080000000016
:10002000000000000000000000000000E5010008E2
:10003000E501000800000000E5010008E5010008F6
:10004000E5010008E5010008E5010008E5010008F8
:10005000E5010008E5010008E5010008E5010008E8
:10006000E5010008E5010008E5010008E5010008D8
:10007000E5010008E5010008E5010008E5010008C8
:10008000E5010008E5010008E5010008E5010008B8
:10009000E5010008E5010008E5010008E5010008A8
:1000A000E5010008E5010008E5010008E501000898
:1000B000E5010008E5010008E5010008E501000888
:1000C000E5010008E5010008E5010008E501000878
:1000D000E5010008E5010008E5010008E501000868
:1000E000E5010008E5010008E5010008E501000858
:1000F000E5010008E5010008E5010008E501000848
:10010000E5010008E5010008E5010008E501000837
:10011000E5010008E5010008E5010008E501000827
:10012000E5010008E5010008E5010008E501000817
:10013000E5010008E5010008E5010008E501000807
:10014000E5010008E5010008E5010008E5010008F7
:10015000E5010008E5010008E5010008E5010008E7
:10016000E5010008E5010008E5010008E5010008D7
:10017000E5010008E5010008E5010008E5010008C7
:10018000E5010008E501000880B582B000AF104B22
:100190007B60104B3B6007E03B681A1D3A607A6851
:1001A000111D796012681A603A680B4B9A42F3D3BA
:1001B0000A480B494FF000028842B8BF40F8042BB0
:1001C000FFF6FAAF00F054F80837BD4680BD00BF17
:1001D000DC040008000000200000002000000020D7
:1001E0000000002080B400AFFEE700BF80B483B001
:1001F00000AF786000BF7B685A1E7A60002BFAD18E
:100200000C37BD465DF8047B704700BF80B582B0F7
:1002100000AF0820012100F099F84FF2A2033B60E3
:1002200001233B7102237B710023BB710023FB710F
:100230003B460D48194600F0A7F80120012100F0C7
:1002400085F801233B6000233B7102237B7100236F
:10025000BB710223FB713B460448194600F094F839
:100260000837BD4680BD00BF000C024000000240C0
:1002700080B582B000AFFFF7C9FF314B4FF4704239
:100280001A833048FFF7B2FF2D4B4FF470425A8368
:100290000023FB7100233B602B4B1B6903F0010320
:1002A000002B01D100233B60274B1B6903F00103A6
:1002B000002B43D03B68002B40D101233B60FB79EE
:1002C000022B01D90023FB71FB79012B14D0022BE7
:1002D00023D0002B2ED11A4B4FF480521A83184B87
:1002E0004FF400425A831648802100F0DBF814488E
:1002F000202100F0E5F81DE0114B4FF400521A8365
:100300000F4B4FF480525A830D48202100F0CAF859
:100310000B48802100F0D4F80CE0094B4FF4004268
:100320001A83074B4FF400525A830548A02100F06E
:10033000C7F800BFFB790133FB71ADE7ACE700BF45
:10034000000C024040420F000000024080B483B025
:1003500000AF78600B46FB70FB78002B06D0094B92
:10036000084A116B7A680A431A6306E0054B054A8E
:10037000116B7A68D2430A401A630C37BD465DF8A8
:10038000047B70470038024080B487B000AF7860CB
:10039000396000237B6100233B610023FB60002365
:1003A0007B6176E07B69012202FA03F33B613B68E3
:1003B0001A683B691340FB60FA683B699A4265D151
:1003C0007B681A687B695B00032101FA03F3DB4356
:1003D0001A407B681A607B681A683B681B7919466B
:1003E0007B695B0001FA03F31A437B681A603B6880
:1003F0001B79012B03D03B681B79022B2ED17B6824
:100400009A687B695B00032101FA03F3DB431A401E
:100410007B689A607B689A683B685B7919467B6960
:100420005B0001FA03F31A437B689A607B685A68A1
:100430007B699BB2012101FA03F3DB431A407B681D
:100440005A607B685A683B689B7919467B699BB206
:1004500001FA03F39BB21A437B685A607B68DA683F
:100460007B699BB25B00032101FA03F3DB431A4073
:100470007B68DA607B68DA683B68DB7919467B6900
:100480005B0001FA03F31A437B68DA607B6901338E
:100490007B617B690F2B85D91C37BD465DF8047BDA
:1004A000704700BF80B483B000AF78600B467B809C
:1004B0007B687A881A830C37BD465DF8047B7047E9
:1004C00080B483B000AF78600B467B807B687A880D
:0C04D0005A830C37BD465DF8047B704772
:0400000508000000EF
:00000001FF
